{
	"data": {
		"bytecode": {
			"linkReferences": {},
			"object": "608060405234801561001057600080fd5b50610d5a806100206000396000f3fe608060405234801561001057600080fd5b50600436106100a95760003560e01c80634de525d9116100715780634de525d91461013c5780635c97f4a21461016c5780639a11b2e81461019c578063bb03fa1d146101b8578063ce6ccfaf146101e8578063fdff0b2614610218576100a9565b80630900f010146100ae5780630912ed77146100ca57806315e812ad146100e65780633c09e2fd146101045780634686069814610120575b600080fd5b6100c860048036038101906100c39190610916565b610234565b005b6100e460048036038101906100df9190610a29565b610302565b005b6100ee61035c565b6040516100fb9190610ba8565b60405180910390f35b61011e60048036038101906101199190610a29565b610366565b005b61013a60048036038101906101359190610a69565b6103c0565b005b61015660048036038101906101519190610996565b61044d565b6040516101639190610ba8565b60405180910390f35b61018660048036038101906101819190610a29565b610474565b6040516101939190610b4d565b60405180910390f35b6101b660048036038101906101b19190610943565b610488565b005b6101d260048036038101906101cd9190610916565b6105c9565b6040516101df9190610ba8565b60405180910390f35b61020260048036038101906101fd9190610916565b610612565b60405161020f9190610ba8565b60405180910390f35b610232600480360381019061022d91906109d6565b610624565b005b60016102403382610696565b61027f576040517f08c379a000000000000000000000000000000000000000000000000000000000815260040161027690610b88565b60405180910390fd5b73010000000000000000000000000000000000000a73ffffffffffffffffffffffffffffffffffffffff1663d784d426836040518263ffffffff1660e01b81526004016102cc9190610b09565b600060405180830381600087803b1580156102e657600080fd5b505af11580156102fa573d6000803e3d6000fd5b505050505050565b600161030e3382610696565b61034d576040517f08c379a000000000000000000000000000000000000000000000000000000000815260040161034490610b88565b60405180910390fd5b61035783836106e4565b505050565b6000600154905090565b60016103723382610696565b6103b1576040517f08c379a00000000000000000000000000000000000000000000000000000000081526004016103a890610b88565b60405180910390fd5b6103bb838361076e565b505050565b60026103cc3382610696565b61040b576040517f08c379a000000000000000000000000000000000000000000000000000000000815260040161040290610b88565b60405180910390fd5b816001819055507f1c053aa9b674900648619554980ac10e913d661c372ca30455e1e4ec0ce44071826040516104419190610ba8565b60405180910390a15050565b60006003600061045d8585610841565b815260200190815260200160002054905092915050565b60006104808383610696565b905092915050565b60046104943382610696565b6104d3576040517f08c379a00000000000000000000000000000000000000000000000000000000081526004016104ca90610b88565b60405180910390fd5b6000600260008673ffffffffffffffffffffffffffffffffffffffff1673ffffffffffffffffffffffffffffffffffffffff1681526020019081526020016000205490506000846105265783821761052b565b831982165b905080600260008873ffffffffffffffffffffffffffffffffffffffff1673ffffffffffffffffffffffffffffffffffffffff168152602001908152602001600020819055508573ffffffffffffffffffffffffffffffffffffffff167ff64784c1c207eed151b4adc53adde03b1c3a4ecad6b8de3a65539d464b3e1add83836040516105b9929190610bc3565b60405180910390a2505050505050565b6000600260008373ffffffffffffffffffffffffffffffffffffffff1673ffffffffffffffffffffffffffffffffffffffff168152602001908152602001600020549050919050565b600061061d82610871565b9050919050565b60086106303382610696565b61066f576040517f08c379a000000000000000000000000000000000000000000000000000000000815260040161066690610b88565b60405180910390fd5b816003600061067e8787610841565b81526020019081526020016000208190555050505050565b600080826000808673ffffffffffffffffffffffffffffffffffffffff1673ffffffffffffffffffffffffffffffffffffffff16815260200190815260200160002054161415905092915050565b80196000808473ffffffffffffffffffffffffffffffffffffffff1673ffffffffffffffffffffffffffffffffffffffff168152602001908152602001600020600082825416925050819055507fcfa5316bd1be4ceb62f363b0a162f322c33ba870641138cd8600dd4fa603fc3b8282604051610762929190610b24565b60405180910390a15050565b6107766108b9565b8111156107b8576040517f08c379a00000000000000000000000000000000000000000000000000000000081526004016107af90610b68565b60405180910390fd5b806000808473ffffffffffffffffffffffffffffffffffffffff1673ffffffffffffffffffffffffffffffffffffffff168152602001908152602001600020600082825417925050819055507f385a9c70004a48177c93b74796d77d5ebf7e1248f9e2369624514da454cd01b08282604051610835929190610b24565b60405180910390a15050565b600060148260e01c63ffffffff16901b8373ffffffffffffffffffffffffffffffffffffffff1617905092915050565b60008060008373ffffffffffffffffffffffffffffffffffffffff1673ffffffffffffffffffffffffffffffffffffffff168152602001908152602001600020549050919050565b60006008905090565b6000813590506108d181610cc8565b92915050565b6000813590506108e681610cdf565b92915050565b6000813590506108fb81610cf6565b92915050565b60008135905061091081610d0d565b92915050565b60006020828403121561092c5761092b610c71565b5b600061093a848285016108c2565b91505092915050565b60008060006060848603121561095c5761095b610c71565b5b600061096a868287016108c2565b935050602061097b868287016108d7565b925050604061098c86828701610901565b9150509250925092565b600080604083850312156109ad576109ac610c71565b5b60006109bb858286016108c2565b92505060206109cc858286016108ec565b9150509250929050565b6000806000606084860312156109ef576109ee610c71565b5b60006109fd868287016108c2565b9350506020610a0e868287016108ec565b9250506040610a1f86828701610901565b9150509250925092565b60008060408385031215610a4057610a3f610c71565b5b6000610a4e858286016108c2565b9250506020610a5f85828601610901565b9150509250929050565b600060208284031215610a7f57610a7e610c71565b5b6000610a8d84828501610901565b91505092915050565b610a9f81610bfd565b82525050565b610aae81610c0f565b82525050565b6000610ac1600c83610bec565b9150610acc82610c76565b602082019050919050565b6000610ae4600d83610bec565b9150610aef82610c9f565b602082019050919050565b610b0381610c67565b82525050565b6000602082019050610b1e6000830184610a96565b92915050565b6000604082019050610b396000830185610a96565b610b466020830184610afa565b9392505050565b6000602082019050610b626000830184610aa5565b92915050565b60006020820190508181036000830152610b8181610ab4565b9050919050565b60006020820190508181036000830152610ba181610ad7565b9050919050565b6000602082019050610bbd6000830184610afa565b92915050565b6000604082019050610bd86000830185610afa565b610be56020830184610afa565b9392505050565b600082825260208201905092915050565b6000610c0882610c47565b9050919050565b60008115159050919050565b60007fffffffff0000000000000000000000000000000000000000000000000000000082169050919050565b600073ffffffffffffffffffffffffffffffffffffffff82169050919050565b6000819050919050565b600080fd5b7f556e6b6e6f776e20526f6c650000000000000000000000000000000000000000600082015250565b7f4163636573732064656e69656400000000000000000000000000000000000000600082015250565b610cd181610bfd565b8114610cdc57600080fd5b50565b610ce881610c0f565b8114610cf357600080fd5b50565b610cff81610c1b565b8114610d0a57600080fd5b50565b610d1681610c67565b8114610d2157600080fd5b5056fea264697066735822122016882ea269f438a1536b60b95a8931b69e5da3c62894b8b3dd54c22c478f719264736f6c63430008060033",
			"opcodes": "PUSH1 0x80 PUSH1 0x40 MSTORE CALLVALUE DUP1 ISZERO PUSH2 0x10 JUMPI PUSH1 0x0 DUP1 REVERT JUMPDEST POP PUSH2 0xD5A DUP1 PUSH2 0x20 PUSH1 0x0 CODECOPY PUSH1 0x0 RETURN INVALID PUSH1 0x80 PUSH1 0x40 MSTORE CALLVALUE DUP1 ISZERO PUSH2 0x10 JUMPI PUSH1 0x0 DUP1 REVERT JUMPDEST POP PUSH1 0x4 CALLDATASIZE LT PUSH2 0xA9 JUMPI PUSH1 0x0 CALLDATALOAD PUSH1 0xE0 SHR DUP1 PUSH4 0x4DE525D9 GT PUSH2 0x71 JUMPI DUP1 PUSH4 0x4DE525D9 EQ PUSH2 0x13C JUMPI DUP1 PUSH4 0x5C97F4A2 EQ PUSH2 0x16C JUMPI DUP1 PUSH4 0x9A11B2E8 EQ PUSH2 0x19C JUMPI DUP1 PUSH4 0xBB03FA1D EQ PUSH2 0x1B8 JUMPI DUP1 PUSH4 0xCE6CCFAF EQ PUSH2 0x1E8 JUMPI DUP1 PUSH4 0xFDFF0B26 EQ PUSH2 0x218 JUMPI PUSH2 0xA9 JUMP JUMPDEST DUP1 PUSH4 0x900F010 EQ PUSH2 0xAE JUMPI DUP1 PUSH4 0x912ED77 EQ PUSH2 0xCA JUMPI DUP1 PUSH4 0x15E812AD EQ PUSH2 0xE6 JUMPI DUP1 PUSH4 0x3C09E2FD EQ PUSH2 0x104 JUMPI DUP1 PUSH4 0x46860698 EQ PUSH2 0x120 JUMPI JUMPDEST PUSH1 0x0 DUP1 REVERT JUMPDEST PUSH2 0xC8 PUSH1 0x4 DUP1 CALLDATASIZE SUB DUP2 ADD SWAP1 PUSH2 0xC3 SWAP2 SWAP1 PUSH2 0x916 JUMP JUMPDEST PUSH2 0x234 JUMP JUMPDEST STOP JUMPDEST PUSH2 0xE4 PUSH1 0x4 DUP1 CALLDATASIZE SUB DUP2 ADD SWAP1 PUSH2 0xDF SWAP2 SWAP1 PUSH2 0xA29 JUMP JUMPDEST PUSH2 0x302 JUMP JUMPDEST STOP JUMPDEST PUSH2 0xEE PUSH2 0x35C JUMP JUMPDEST PUSH1 0x40 MLOAD PUSH2 0xFB SWAP2 SWAP1 PUSH2 0xBA8 JUMP JUMPDEST PUSH1 0x40 MLOAD DUP1 SWAP2 SUB SWAP1 RETURN JUMPDEST PUSH2 0x11E PUSH1 0x4 DUP1 CALLDATASIZE SUB DUP2 ADD SWAP1 PUSH2 0x119 SWAP2 SWAP1 PUSH2 0xA29 JUMP JUMPDEST PUSH2 0x366 JUMP JUMPDEST STOP JUMPDEST PUSH2 0x13A PUSH1 0x4 DUP1 CALLDATASIZE SUB DUP2 ADD SWAP1 PUSH2 0x135 SWAP2 SWAP1 PUSH2 0xA69 JUMP JUMPDEST PUSH2 0x3C0 JUMP JUMPDEST STOP JUMPDEST PUSH2 0x156 PUSH1 0x4 DUP1 CALLDATASIZE SUB DUP2 ADD SWAP1 PUSH2 0x151 SWAP2 SWAP1 PUSH2 0x996 JUMP JUMPDEST PUSH2 0x44D JUMP JUMPDEST PUSH1 0x40 MLOAD PUSH2 0x163 SWAP2 SWAP1 PUSH2 0xBA8 JUMP JUMPDEST PUSH1 0x40 MLOAD DUP1 SWAP2 SUB SWAP1 RETURN JUMPDEST PUSH2 0x186 PUSH1 0x4 DUP1 CALLDATASIZE SUB DUP2 ADD SWAP1 PUSH2 0x181 SWAP2 SWAP1 PUSH2 0xA29 JUMP JUMPDEST PUSH2 0x474 JUMP JUMPDEST PUSH1 0x40 MLOAD PUSH2 0x193 SWAP2 SWAP1 PUSH2 0xB4D JUMP JUMPDEST PUSH1 0x40 MLOAD DUP1 SWAP2 SUB SWAP1 RETURN JUMPDEST PUSH2 0x1B6 PUSH1 0x4 DUP1 CALLDATASIZE SUB DUP2 ADD SWAP1 PUSH2 0x1B1 SWAP2 SWAP1 PUSH2 0x943 JUMP JUMPDEST PUSH2 0x488 JUMP JUMPDEST STOP JUMPDEST PUSH2 0x1D2 PUSH1 0x4 DUP1 CALLDATASIZE SUB DUP2 ADD SWAP1 PUSH2 0x1CD SWAP2 SWAP1 PUSH2 0x916 JUMP JUMPDEST PUSH2 0x5C9 JUMP JUMPDEST PUSH1 0x40 MLOAD PUSH2 0x1DF SWAP2 SWAP1 PUSH2 0xBA8 JUMP JUMPDEST PUSH1 0x40 MLOAD DUP1 SWAP2 SUB SWAP1 RETURN JUMPDEST PUSH2 0x202 PUSH1 0x4 DUP1 CALLDATASIZE SUB DUP2 ADD SWAP1 PUSH2 0x1FD SWAP2 SWAP1 PUSH2 0x916 JUMP JUMPDEST PUSH2 0x612 JUMP JUMPDEST PUSH1 0x40 MLOAD PUSH2 0x20F SWAP2 SWAP1 PUSH2 0xBA8 JUMP JUMPDEST PUSH1 0x40 MLOAD DUP1 SWAP2 SUB SWAP1 RETURN JUMPDEST PUSH2 0x232 PUSH1 0x4 DUP1 CALLDATASIZE SUB DUP2 ADD SWAP1 PUSH2 0x22D SWAP2 SWAP1 PUSH2 0x9D6 JUMP JUMPDEST PUSH2 0x624 JUMP JUMPDEST STOP JUMPDEST PUSH1 0x1 PUSH2 0x240 CALLER DUP3 PUSH2 0x696 JUMP JUMPDEST PUSH2 0x27F JUMPI PUSH1 0x40 MLOAD PUSH32 0x8C379A000000000000000000000000000000000000000000000000000000000 DUP2 MSTORE PUSH1 0x4 ADD PUSH2 0x276 SWAP1 PUSH2 0xB88 JUMP JUMPDEST PUSH1 0x40 MLOAD DUP1 SWAP2 SUB SWAP1 REVERT JUMPDEST PUSH20 0x10000000000000000000000000000000000000A PUSH20 0xFFFFFFFFFFFFFFFFFFFFFFFFFFFFFFFFFFFFFFFF AND PUSH4 0xD784D426 DUP4 PUSH1 0x40 MLOAD DUP3 PUSH4 0xFFFFFFFF AND PUSH1 0xE0 SHL DUP2 MSTORE PUSH1 0x4 ADD PUSH2 0x2CC SWAP2 SWAP1 PUSH2 0xB09 JUMP JUMPDEST PUSH1 0x0 PUSH1 0x40 MLOAD DUP1 DUP4 SUB DUP2 PUSH1 0x0 DUP8 DUP1 EXTCODESIZE ISZERO DUP1 ISZERO PUSH2 0x2E6 JUMPI PUSH1 0x0 DUP1 REVERT JUMPDEST POP GAS CALL ISZERO DUP1 ISZERO PUSH2 0x2FA JUMPI RETURNDATASIZE PUSH1 0x0 DUP1 RETURNDATACOPY RETURNDATASIZE PUSH1 0x0 REVERT JUMPDEST POP POP POP POP POP POP JUMP JUMPDEST PUSH1 0x1 PUSH2 0x30E CALLER DUP3 PUSH2 0x696 JUMP JUMPDEST PUSH2 0x34D JUMPI PUSH1 0x40 MLOAD PUSH32 0x8C379A000000000000000000000000000000000000000000000000000000000 DUP2 MSTORE PUSH1 0x4 ADD PUSH2 0x344 SWAP1 PUSH2 0xB88 JUMP JUMPDEST PUSH1 0x40 MLOAD DUP1 SWAP2 SUB SWAP1 REVERT JUMPDEST PUSH2 0x357 DUP4 DUP4 PUSH2 0x6E4 JUMP JUMPDEST POP POP POP JUMP JUMPDEST PUSH1 0x0 PUSH1 0x1 SLOAD SWAP1 POP SWAP1 JUMP JUMPDEST PUSH1 0x1 PUSH2 0x372 CALLER DUP3 PUSH2 0x696 JUMP JUMPDEST PUSH2 0x3B1 JUMPI PUSH1 0x40 MLOAD PUSH32 0x8C379A000000000000000000000000000000000000000000000000000000000 DUP2 MSTORE PUSH1 0x4 ADD PUSH2 0x3A8 SWAP1 PUSH2 0xB88 JUMP JUMPDEST PUSH1 0x40 MLOAD DUP1 SWAP2 SUB SWAP1 REVERT JUMPDEST PUSH2 0x3BB DUP4 DUP4 PUSH2 0x76E JUMP JUMPDEST POP POP POP JUMP JUMPDEST PUSH1 0x2 PUSH2 0x3CC CALLER DUP3 PUSH2 0x696 JUMP JUMPDEST PUSH2 0x40B JUMPI PUSH1 0x40 MLOAD PUSH32 0x8C379A000000000000000000000000000000000000000000000000000000000 DUP2 MSTORE PUSH1 0x4 ADD PUSH2 0x402 SWAP1 PUSH2 0xB88 JUMP JUMPDEST PUSH1 0x40 MLOAD DUP1 SWAP2 SUB SWAP1 REVERT JUMPDEST DUP2 PUSH1 0x1 DUP2 SWAP1 SSTORE POP PUSH32 0x1C053AA9B674900648619554980AC10E913D661C372CA30455E1E4EC0CE44071 DUP3 PUSH1 0x40 MLOAD PUSH2 0x441 SWAP2 SWAP1 PUSH2 0xBA8 JUMP JUMPDEST PUSH1 0x40 MLOAD DUP1 SWAP2 SUB SWAP1 LOG1 POP POP JUMP JUMPDEST PUSH1 0x0 PUSH1 0x3 PUSH1 0x0 PUSH2 0x45D DUP6 DUP6 PUSH2 0x841 JUMP JUMPDEST DUP2 MSTORE PUSH1 0x20 ADD SWAP1 DUP2 MSTORE PUSH1 0x20 ADD PUSH1 0x0 KECCAK256 SLOAD SWAP1 POP SWAP3 SWAP2 POP POP JUMP JUMPDEST PUSH1 0x0 PUSH2 0x480 DUP4 DUP4 PUSH2 0x696 JUMP JUMPDEST SWAP1 POP SWAP3 SWAP2 POP POP JUMP JUMPDEST PUSH1 0x4 PUSH2 0x494 CALLER DUP3 PUSH2 0x696 JUMP JUMPDEST PUSH2 0x4D3 JUMPI PUSH1 0x40 MLOAD PUSH32 0x8C379A000000000000000000000000000000000000000000000000000000000 DUP2 MSTORE PUSH1 0x4 ADD PUSH2 0x4CA SWAP1 PUSH2 0xB88 JUMP JUMPDEST PUSH1 0x40 MLOAD DUP1 SWAP2 SUB SWAP1 REVERT JUMPDEST PUSH1 0x0 PUSH1 0x2 PUSH1 0x0 DUP7 PUSH20 0xFFFFFFFFFFFFFFFFFFFFFFFFFFFFFFFFFFFFFFFF AND PUSH20 0xFFFFFFFFFFFFFFFFFFFFFFFFFFFFFFFFFFFFFFFF AND DUP2 MSTORE PUSH1 0x20 ADD SWAP1 DUP2 MSTORE PUSH1 0x20 ADD PUSH1 0x0 KECCAK256 SLOAD SWAP1 POP PUSH1 0x0 DUP5 PUSH2 0x526 JUMPI DUP4 DUP3 OR PUSH2 0x52B JUMP JUMPDEST DUP4 NOT DUP3 AND JUMPDEST SWAP1 POP DUP1 PUSH1 0x2 PUSH1 0x0 DUP9 PUSH20 0xFFFFFFFFFFFFFFFFFFFFFFFFFFFFFFFFFFFFFFFF AND PUSH20 0xFFFFFFFFFFFFFFFFFFFFFFFFFFFFFFFFFFFFFFFF AND DUP2 MSTORE PUSH1 0x20 ADD SWAP1 DUP2 MSTORE PUSH1 0x20 ADD PUSH1 0x0 KECCAK256 DUP2 SWAP1 SSTORE POP DUP6 PUSH20 0xFFFFFFFFFFFFFFFFFFFFFFFFFFFFFFFFFFFFFFFF AND PUSH32 0xF64784C1C207EED151B4ADC53ADDE03B1C3A4ECAD6B8DE3A65539D464B3E1ADD DUP4 DUP4 PUSH1 0x40 MLOAD PUSH2 0x5B9 SWAP3 SWAP2 SWAP1 PUSH2 0xBC3 JUMP JUMPDEST PUSH1 0x40 MLOAD DUP1 SWAP2 SUB SWAP1 LOG2 POP POP POP POP POP POP JUMP JUMPDEST PUSH1 0x0 PUSH1 0x2 PUSH1 0x0 DUP4 PUSH20 0xFFFFFFFFFFFFFFFFFFFFFFFFFFFFFFFFFFFFFFFF AND PUSH20 0xFFFFFFFFFFFFFFFFFFFFFFFFFFFFFFFFFFFFFFFF AND DUP2 MSTORE PUSH1 0x20 ADD SWAP1 DUP2 MSTORE PUSH1 0x20 ADD PUSH1 0x0 KECCAK256 SLOAD SWAP1 POP SWAP2 SWAP1 POP JUMP JUMPDEST PUSH1 0x0 PUSH2 0x61D DUP3 PUSH2 0x871 JUMP JUMPDEST SWAP1 POP SWAP2 SWAP1 POP JUMP JUMPDEST PUSH1 0x8 PUSH2 0x630 CALLER DUP3 PUSH2 0x696 JUMP JUMPDEST PUSH2 0x66F JUMPI PUSH1 0x40 MLOAD PUSH32 0x8C379A000000000000000000000000000000000000000000000000000000000 DUP2 MSTORE PUSH1 0x4 ADD PUSH2 0x666 SWAP1 PUSH2 0xB88 JUMP JUMPDEST PUSH1 0x40 MLOAD DUP1 SWAP2 SUB SWAP1 REVERT JUMPDEST DUP2 PUSH1 0x3 PUSH1 0x0 PUSH2 0x67E DUP8 DUP8 PUSH2 0x841 JUMP JUMPDEST DUP2 MSTORE PUSH1 0x20 ADD SWAP1 DUP2 MSTORE PUSH1 0x20 ADD PUSH1 0x0 KECCAK256 DUP2 SWAP1 SSTORE POP POP POP POP POP JUMP JUMPDEST PUSH1 0x0 DUP1 DUP3 PUSH1 0x0 DUP1 DUP7 PUSH20 0xFFFFFFFFFFFFFFFFFFFFFFFFFFFFFFFFFFFFFFFF AND PUSH20 0xFFFFFFFFFFFFFFFFFFFFFFFFFFFFFFFFFFFFFFFF AND DUP2 MSTORE PUSH1 0x20 ADD SWAP1 DUP2 MSTORE PUSH1 0x20 ADD PUSH1 0x0 KECCAK256 SLOAD AND EQ ISZERO SWAP1 POP SWAP3 SWAP2 POP POP JUMP JUMPDEST DUP1 NOT PUSH1 0x0 DUP1 DUP5 PUSH20 0xFFFFFFFFFFFFFFFFFFFFFFFFFFFFFFFFFFFFFFFF AND PUSH20 0xFFFFFFFFFFFFFFFFFFFFFFFFFFFFFFFFFFFFFFFF AND DUP2 MSTORE PUSH1 0x20 ADD SWAP1 DUP2 MSTORE PUSH1 0x20 ADD PUSH1 0x0 KECCAK256 PUSH1 0x0 DUP3 DUP3 SLOAD AND SWAP3 POP POP DUP2 SWAP1 SSTORE POP PUSH32 0xCFA5316BD1BE4CEB62F363B0A162F322C33BA870641138CD8600DD4FA603FC3B DUP3 DUP3 PUSH1 0x40 MLOAD PUSH2 0x762 SWAP3 SWAP2 SWAP1 PUSH2 0xB24 JUMP JUMPDEST PUSH1 0x40 MLOAD DUP1 SWAP2 SUB SWAP1 LOG1 POP POP JUMP JUMPDEST PUSH2 0x776 PUSH2 0x8B9 JUMP JUMPDEST DUP2 GT ISZERO PUSH2 0x7B8 JUMPI PUSH1 0x40 MLOAD PUSH32 0x8C379A000000000000000000000000000000000000000000000000000000000 DUP2 MSTORE PUSH1 0x4 ADD PUSH2 0x7AF SWAP1 PUSH2 0xB68 JUMP JUMPDEST PUSH1 0x40 MLOAD DUP1 SWAP2 SUB SWAP1 REVERT JUMPDEST DUP1 PUSH1 0x0 DUP1 DUP5 PUSH20 0xFFFFFFFFFFFFFFFFFFFFFFFFFFFFFFFFFFFFFFFF AND PUSH20 0xFFFFFFFFFFFFFFFFFFFFFFFFFFFFFFFFFFFFFFFF AND DUP2 MSTORE PUSH1 0x20 ADD SWAP1 DUP2 MSTORE PUSH1 0x20 ADD PUSH1 0x0 KECCAK256 PUSH1 0x0 DUP3 DUP3 SLOAD OR SWAP3 POP POP DUP2 SWAP1 SSTORE POP PUSH32 0x385A9C70004A48177C93B74796D77D5EBF7E1248F9E2369624514DA454CD01B0 DUP3 DUP3 PUSH1 0x40 MLOAD PUSH2 0x835 SWAP3 SWAP2 SWAP1 PUSH2 0xB24 JUMP JUMPDEST PUSH1 0x40 MLOAD DUP1 SWAP2 SUB SWAP1 LOG1 POP POP JUMP JUMPDEST PUSH1 0x0 PUSH1 0x14 DUP3 PUSH1 0xE0 SHR PUSH4 0xFFFFFFFF AND SWAP1 SHL DUP4 PUSH20 0xFFFFFFFFFFFFFFFFFFFFFFFFFFFFFFFFFFFFFFFF AND OR SWAP1 POP SWAP3 SWAP2 POP POP JUMP JUMPDEST PUSH1 0x0 DUP1 PUSH1 0x0 DUP4 PUSH20 0xFFFFFFFFFFFFFFFFFFFFFFFFFFFFFFFFFFFFFFFF AND PUSH20 0xFFFFFFFFFFFFFFFFFFFFFFFFFFFFFFFFFFFFFFFF AND DUP2 MSTORE PUSH1 0x20 ADD SWAP1 DUP2 MSTORE PUSH1 0x20 ADD PUSH1 0x0 KECCAK256 SLOAD SWAP1 POP SWAP2 SWAP1 POP JUMP JUMPDEST PUSH1 0x0 PUSH1 0x8 SWAP1 POP SWAP1 JUMP JUMPDEST PUSH1 0x0 DUP2 CALLDATALOAD SWAP1 POP PUSH2 0x8D1 DUP2 PUSH2 0xCC8 JUMP JUMPDEST SWAP3 SWAP2 POP POP JUMP JUMPDEST PUSH1 0x0 DUP2 CALLDATALOAD SWAP1 POP PUSH2 0x8E6 DUP2 PUSH2 0xCDF JUMP JUMPDEST SWAP3 SWAP2 POP POP JUMP JUMPDEST PUSH1 0x0 DUP2 CALLDATALOAD SWAP1 POP PUSH2 0x8FB DUP2 PUSH2 0xCF6 JUMP JUMPDEST SWAP3 SWAP2 POP POP JUMP JUMPDEST PUSH1 0x0 DUP2 CALLDATALOAD SWAP1 POP PUSH2 0x910 DUP2 PUSH2 0xD0D JUMP JUMPDEST SWAP3 SWAP2 POP POP JUMP JUMPDEST PUSH1 0x0 PUSH1 0x20 DUP3 DUP5 SUB SLT ISZERO PUSH2 0x92C JUMPI PUSH2 0x92B PUSH2 0xC71 JUMP JUMPDEST JUMPDEST PUSH1 0x0 PUSH2 0x93A DUP5 DUP3 DUP6 ADD PUSH2 0x8C2 JUMP JUMPDEST SWAP2 POP POP SWAP3 SWAP2 POP POP JUMP JUMPDEST PUSH1 0x0 DUP1 PUSH1 0x0 PUSH1 0x60 DUP5 DUP7 SUB SLT ISZERO PUSH2 0x95C JUMPI PUSH2 0x95B PUSH2 0xC71 JUMP JUMPDEST JUMPDEST PUSH1 0x0 PUSH2 0x96A DUP7 DUP3 DUP8 ADD PUSH2 0x8C2 JUMP JUMPDEST SWAP4 POP POP PUSH1 0x20 PUSH2 0x97B DUP7 DUP3 DUP8 ADD PUSH2 0x8D7 JUMP JUMPDEST SWAP3 POP POP PUSH1 0x40 PUSH2 0x98C DUP7 DUP3 DUP8 ADD PUSH2 0x901 JUMP JUMPDEST SWAP2 POP POP SWAP3 POP SWAP3 POP SWAP3 JUMP JUMPDEST PUSH1 0x0 DUP1 PUSH1 0x40 DUP4 DUP6 SUB SLT ISZERO PUSH2 0x9AD JUMPI PUSH2 0x9AC PUSH2 0xC71 JUMP JUMPDEST JUMPDEST PUSH1 0x0 PUSH2 0x9BB DUP6 DUP3 DUP7 ADD PUSH2 0x8C2 JUMP JUMPDEST SWAP3 POP POP PUSH1 0x20 PUSH2 0x9CC DUP6 DUP3 DUP7 ADD PUSH2 0x8EC JUMP JUMPDEST SWAP2 POP POP SWAP3 POP SWAP3 SWAP1 POP JUMP JUMPDEST PUSH1 0x0 DUP1 PUSH1 0x0 PUSH1 0x60 DUP5 DUP7 SUB SLT ISZERO PUSH2 0x9EF JUMPI PUSH2 0x9EE PUSH2 0xC71 JUMP JUMPDEST JUMPDEST PUSH1 0x0 PUSH2 0x9FD DUP7 DUP3 DUP8 ADD PUSH2 0x8C2 JUMP JUMPDEST SWAP4 POP POP PUSH1 0x20 PUSH2 0xA0E DUP7 DUP3 DUP8 ADD PUSH2 0x8EC JUMP JUMPDEST SWAP3 POP POP PUSH1 0x40 PUSH2 0xA1F DUP7 DUP3 DUP8 ADD PUSH2 0x901 JUMP JUMPDEST SWAP2 POP POP SWAP3 POP SWAP3 POP SWAP3 JUMP JUMPDEST PUSH1 0x0 DUP1 PUSH1 0x40 DUP4 DUP6 SUB SLT ISZERO PUSH2 0xA40 JUMPI PUSH2 0xA3F PUSH2 0xC71 JUMP JUMPDEST JUMPDEST PUSH1 0x0 PUSH2 0xA4E DUP6 DUP3 DUP7 ADD PUSH2 0x8C2 JUMP JUMPDEST SWAP3 POP POP PUSH1 0x20 PUSH2 0xA5F DUP6 DUP3 DUP7 ADD PUSH2 0x901 JUMP JUMPDEST SWAP2 POP POP SWAP3 POP SWAP3 SWAP1 POP JUMP JUMPDEST PUSH1 0x0 PUSH1 0x20 DUP3 DUP5 SUB SLT ISZERO PUSH2 0xA7F JUMPI PUSH2 0xA7E PUSH2 0xC71 JUMP JUMPDEST JUMPDEST PUSH1 0x0 PUSH2 0xA8D DUP5 DUP3 DUP6 ADD PUSH2 0x901 JUMP JUMPDEST SWAP2 POP POP SWAP3 SWAP2 POP POP JUMP JUMPDEST PUSH2 0xA9F DUP2 PUSH2 0xBFD JUMP JUMPDEST DUP3 MSTORE POP POP JUMP JUMPDEST PUSH2 0xAAE DUP2 PUSH2 0xC0F JUMP JUMPDEST DUP3 MSTORE POP POP JUMP JUMPDEST PUSH1 0x0 PUSH2 0xAC1 PUSH1 0xC DUP4 PUSH2 0xBEC JUMP JUMPDEST SWAP2 POP PUSH2 0xACC DUP3 PUSH2 0xC76 JUMP JUMPDEST PUSH1 0x20 DUP3 ADD SWAP1 POP SWAP2 SWAP1 POP JUMP JUMPDEST PUSH1 0x0 PUSH2 0xAE4 PUSH1 0xD DUP4 PUSH2 0xBEC JUMP JUMPDEST SWAP2 POP PUSH2 0xAEF DUP3 PUSH2 0xC9F JUMP JUMPDEST PUSH1 0x20 DUP3 ADD SWAP1 POP SWAP2 SWAP1 POP JUMP JUMPDEST PUSH2 0xB03 DUP2 PUSH2 0xC67 JUMP JUMPDEST DUP3 MSTORE POP POP JUMP JUMPDEST PUSH1 0x0 PUSH1 0x20 DUP3 ADD SWAP1 POP PUSH2 0xB1E PUSH1 0x0 DUP4 ADD DUP5 PUSH2 0xA96 JUMP JUMPDEST SWAP3 SWAP2 POP POP JUMP JUMPDEST PUSH1 0x0 PUSH1 0x40 DUP3 ADD SWAP1 POP PUSH2 0xB39 PUSH1 0x0 DUP4 ADD DUP6 PUSH2 0xA96 JUMP JUMPDEST PUSH2 0xB46 PUSH1 0x20 DUP4 ADD DUP5 PUSH2 0xAFA JUMP JUMPDEST SWAP4 SWAP3 POP POP POP JUMP JUMPDEST PUSH1 0x0 PUSH1 0x20 DUP3 ADD SWAP1 POP PUSH2 0xB62 PUSH1 0x0 DUP4 ADD DUP5 PUSH2 0xAA5 JUMP JUMPDEST SWAP3 SWAP2 POP POP JUMP JUMPDEST PUSH1 0x0 PUSH1 0x20 DUP3 ADD SWAP1 POP DUP2 DUP2 SUB PUSH1 0x0 DUP4 ADD MSTORE PUSH2 0xB81 DUP2 PUSH2 0xAB4 JUMP JUMPDEST SWAP1 POP SWAP2 SWAP1 POP JUMP JUMPDEST PUSH1 0x0 PUSH1 0x20 DUP3 ADD SWAP1 POP DUP2 DUP2 SUB PUSH1 0x0 DUP4 ADD MSTORE PUSH2 0xBA1 DUP2 PUSH2 0xAD7 JUMP JUMPDEST SWAP1 POP SWAP2 SWAP1 POP JUMP JUMPDEST PUSH1 0x0 PUSH1 0x20 DUP3 ADD SWAP1 POP PUSH2 0xBBD PUSH1 0x0 DUP4 ADD DUP5 PUSH2 0xAFA JUMP JUMPDEST SWAP3 SWAP2 POP POP JUMP JUMPDEST PUSH1 0x0 PUSH1 0x40 DUP3 ADD SWAP1 POP PUSH2 0xBD8 PUSH1 0x0 DUP4 ADD DUP6 PUSH2 0xAFA JUMP JUMPDEST PUSH2 0xBE5 PUSH1 0x20 DUP4 ADD DUP5 PUSH2 0xAFA JUMP JUMPDEST SWAP4 SWAP3 POP POP POP JUMP JUMPDEST PUSH1 0x0 DUP3 DUP3 MSTORE PUSH1 0x20 DUP3 ADD SWAP1 POP SWAP3 SWAP2 POP POP JUMP JUMPDEST PUSH1 0x0 PUSH2 0xC08 DUP3 PUSH2 0xC47 JUMP JUMPDEST SWAP1 POP SWAP2 SWAP1 POP JUMP JUMPDEST PUSH1 0x0 DUP2 ISZERO ISZERO SWAP1 POP SWAP2 SWAP1 POP JUMP JUMPDEST PUSH1 0x0 PUSH32 0xFFFFFFFF00000000000000000000000000000000000000000000000000000000 DUP3 AND SWAP1 POP SWAP2 SWAP1 POP JUMP JUMPDEST PUSH1 0x0 PUSH20 0xFFFFFFFFFFFFFFFFFFFFFFFFFFFFFFFFFFFFFFFF DUP3 AND SWAP1 POP SWAP2 SWAP1 POP JUMP JUMPDEST PUSH1 0x0 DUP2 SWAP1 POP SWAP2 SWAP1 POP JUMP JUMPDEST PUSH1 0x0 DUP1 REVERT JUMPDEST PUSH32 0x556E6B6E6F776E20526F6C650000000000000000000000000000000000000000 PUSH1 0x0 DUP3 ADD MSTORE POP JUMP JUMPDEST PUSH32 0x4163636573732064656E69656400000000000000000000000000000000000000 PUSH1 0x0 DUP3 ADD MSTORE POP JUMP JUMPDEST PUSH2 0xCD1 DUP2 PUSH2 0xBFD JUMP JUMPDEST DUP2 EQ PUSH2 0xCDC JUMPI PUSH1 0x0 DUP1 REVERT JUMPDEST POP JUMP JUMPDEST PUSH2 0xCE8 DUP2 PUSH2 0xC0F JUMP JUMPDEST DUP2 EQ PUSH2 0xCF3 JUMPI PUSH1 0x0 DUP1 REVERT JUMPDEST POP JUMP JUMPDEST PUSH2 0xCFF DUP2 PUSH2 0xC1B JUMP JUMPDEST DUP2 EQ PUSH2 0xD0A JUMPI PUSH1 0x0 DUP1 REVERT JUMPDEST POP JUMP JUMPDEST PUSH2 0xD16 DUP2 PUSH2 0xC67 JUMP JUMPDEST DUP2 EQ PUSH2 0xD21 JUMPI PUSH1 0x0 DUP1 REVERT JUMPDEST POP JUMP INVALID LOG2 PUSH5 0x6970667358 0x22 SLT KECCAK256 AND DUP9 0x2E LOG2 PUSH10 0xF438A1536B60B95A8931 0xB6 SWAP15 0x5D LOG3 0xC6 0x28 SWAP5 0xB8 0xB3 0xDD SLOAD 0xC2 0x2C SELFBALANCE DUP16 PUSH18 0x9264736F6C63430008060033000000000000 "
		},
		"gasEstimates": {
			"creation": {
				"codeDepositCost": "683600",
				"executionCost": "715",
				"totalCost": "684315"
			},
			"external": {
				"applyKycState(address,bool,uint256)": "infinite",
				"getBaseFee()": "2482",
				"getBlacklistState(address,bytes4)": "3089",
				"getKycState(address)": "2907",
				"getRoles(address)": "2972",
				"grantRole(address,uint256)": "infinite",
				"hasRole(address,uint256)": "3105",
				"revokeRole(address,uint256)": "infinite",
				"setBaseFee(uint256)": "infinite",
				"setBlacklistState(address,bytes4,uint256)": "25461",
				"upgrade(address)": "infinite"
			},
			"internal": {
				"_lastRole()": "23",
				"_packAccountSig(address,bytes4)": "63"
			}
		},
		"methodIdentifiers": {
			"applyKycState(address,bool,uint256)": "9a11b2e8",
			"getBaseFee()": "15e812ad",
			"getBlacklistState(address,bytes4)": "4de525d9",
			"getKycState(address)": "bb03fa1d",
			"getRoles(address)": "ce6ccfaf",
			"grantRole(address,uint256)": "3c09e2fd",
			"hasRole(address,uint256)": "5c97f4a2",
			"revokeRole(address,uint256)": "0912ed77",
			"setBaseFee(uint256)": "46860698",
			"setBlacklistState(address,bytes4,uint256)": "fdff0b26",
			"upgrade(address)": "0900f010"
		}
	},
	"abi": [
		{
			"anonymous": false,
			"inputs": [
				{
					"indexed": false,
					"internalType": "address",
					"name": "addr",
					"type": "address"
				},
				{
					"indexed": false,
					"internalType": "uint256",
					"name": "role",
					"type": "uint256"
				}
			],
			"name": "DropRole",
			"type": "event"
		},
		{
			"anonymous": false,
			"inputs": [
				{
					"indexed": false,
					"internalType": "uint256",
					"name": "newGasFee",
					"type": "uint256"
				}
			],
			"name": "GasFeeSet",
			"type": "event"
		},
		{
			"anonymous": false,
			"inputs": [
				{
					"indexed": true,
					"internalType": "address",
					"name": "account",
					"type": "address"
				},
				{
					"indexed": false,
					"internalType": "uint256",
					"name": "oldState",
					"type": "uint256"
				},
				{
					"indexed": false,
					"internalType": "uint256",
					"name": "newState",
					"type": "uint256"
				}
			],
			"name": "KycStateChanged",
			"type": "event"
		},
		{
			"anonymous": false,
			"inputs": [
				{
					"indexed": false,
					"internalType": "address",
					"name": "addr",
					"type": "address"
				},
				{
					"indexed": false,
					"internalType": "uint256",
					"name": "role",
					"type": "uint256"
				}
			],
			"name": "SetRole",
			"type": "event"
		},
		{
			"inputs": [
				{
					"internalType": "address",
					"name": "account",
					"type": "address"
				},
				{
					"internalType": "bool",
					"name": "remove",
					"type": "bool"
				},
				{
					"internalType": "uint256",
					"name": "state",
					"type": "uint256"
				}
			],
			"name": "applyKycState",
			"outputs": [],
			"stateMutability": "nonpayable",
			"type": "function"
		},
		{
			"inputs": [],
			"name": "getBaseFee",
			"outputs": [
				{
					"internalType": "uint256",
					"name": "",
					"type": "uint256"
				}
			],
			"stateMutability": "view",
			"type": "function"
		},
		{
			"inputs": [
				{
					"internalType": "address",
					"name": "account",
					"type": "address"
				},
				{
					"internalType": "bytes4",
					"name": "signature",
					"type": "bytes4"
				}
			],
			"name": "getBlacklistState",
			"outputs": [
				{
					"internalType": "uint256",
					"name": "",
					"type": "uint256"
				}
			],
			"stateMutability": "view",
			"type": "function"
		},
		{
			"inputs": [
				{
					"internalType": "address",
					"name": "account",
					"type": "address"
				}
			],
			"name": "getKycState",
			"outputs": [
				{
					"internalType": "uint256",
					"name": "",
					"type": "uint256"
				}
			],
			"stateMutability": "view",
			"type": "function"
		},
		{
			"inputs": [
				{
					"internalType": "address",
					"name": "addr",
					"type": "address"
				}
			],
			"name": "getRoles",
			"outputs": [
				{
					"internalType": "uint256",
					"name": "",
					"type": "uint256"
				}
			],
			"stateMutability": "view",
			"type": "function"
		},
		{
			"inputs": [
				{
					"internalType": "address",
					"name": "addr",
					"type": "address"
				},
				{
					"internalType": "uint256",
					"name": "role",
					"type": "uint256"
				}
			],
			"name": "grantRole",
			"outputs": [],
			"stateMutability": "nonpayable",
			"type": "function"
		},
		{
			"inputs": [
				{
					"internalType": "address",
					"name": "addr",
					"type": "address"
				},
				{
					"internalType": "uint256",
					"name": "role",
					"type": "uint256"
				}
			],
			"name": "hasRole",
			"outputs": [
				{
					"internalType": "bool",
					"name": "",
					"type": "bool"
				}
			],
			"stateMutability": "view",
			"type": "function"
		},
		{
			"inputs": [
				{
					"internalType": "address",
					"name": "addr",
					"type": "address"
				},
				{
					"internalType": "uint256",
					"name": "role",
					"type": "uint256"
				}
			],
			"name": "revokeRole",
			"outputs": [],
			"stateMutability": "nonpayable",
			"type": "function"
		},
		{
			"inputs": [
				{
					"internalType": "uint256",
					"name": "newFee",
					"type": "uint256"
				}
			],
			"name": "setBaseFee",
			"outputs": [],
			"stateMutability": "nonpayable",
			"type": "function"
		},
		{
			"inputs": [
				{
					"internalType": "address",
					"name": "account",
					"type": "address"
				},
				{
					"internalType": "bytes4",
					"name": "signature",
					"type": "bytes4"
				},
				{
					"internalType": "uint256",
					"name": "state",
					"type": "uint256"
				}
			],
			"name": "setBlacklistState",
			"outputs": [],
			"stateMutability": "nonpayable",
			"type": "function"
		},
		{
			"inputs": [
				{
					"internalType": "address",
					"name": "newImplementation",
					"type": "address"
				}
			],
			"name": "upgrade",
			"outputs": [],
			"stateMutability": "nonpayable",
			"type": "function"
		}
	]
}